{
    "contractName": "ColdChain",
    "abi": [
        {
            "anonymous": false,
            "inputs": [
                {
                    "indexed": false,
                    "internalType": "address",
                    "name": "entityId",
                    "type": "address"
                },
                {
                    "indexed": false,
                    "internalType": "string",
                    "name": "entityMode",
                    "type": "string"
                }
            ],
            "name": "AddEntity",
            "type": "event"
        },
        {
            "anonymous": false,
            "inputs": [
                {
                    "indexed": false,
                    "internalType": "uint256",
                    "name": "vaccineBatchId",
                    "type": "uint256"
                },
                {
                    "indexed": true,
                    "internalType": "address",
                    "name": "manufacturer",
                    "type": "address"
                }
            ],
            "name": "AddVaccineBatch",
            "type": "event"
        },
        {
            "anonymous": false,
            "inputs": [
                {
                    "indexed": true,
                    "internalType": "address",
                    "name": "issuer",
                    "type": "address"
                },
                {
                    "indexed": true,
                    "internalType": "address",
                    "name": "prover",
                    "type": "address"
                },
                {
                    "indexed": false,
                    "internalType": "uint256",
                    "name": "CertificateId",
                    "type": "uint256"
                }
            ],
            "name": "IssueCertificate",
            "type": "event"
        },
        {
            "inputs": [
                {
                    "internalType": "uint256",
                    "name": "",
                    "type": "uint256"
                }
            ],
            "name": "CertificateIds",
            "outputs": [
                {
                    "internalType": "uint256",
                    "name": "",
                    "type": "uint256"
                }
            ],
            "stateMutability": "view",
            "type": "function"
        },
        {
            "inputs": [
                {
                    "internalType": "uint256",
                    "name": "",
                    "type": "uint256"
                }
            ],
            "name": "Certificates",
            "outputs": [
                {
                    "internalType": "uint256",
                    "name": "id",
                    "type": "uint256"
                },
                {
                    "components": [
                        {
                            "internalType": "address",
                            "name": "id",
                            "type": "address"
                        },
                        {
                            "internalType": "enum ColdChain.Mode",
                            "name": "mode",
                            "type": "uint8"
                        },
                        {
                            "internalType": "uint256[]",
                            "name": "CertificateId",
                            "type": "uint256[]"
                        }
                    ],
                    "internalType": "struct ColdChain.Entity",
                    "name": "issuer",
                    "type": "tuple"
                },
                {
                    "components": [
                        {
                            "internalType": "address",
                            "name": "id",
                            "type": "address"
                        },
                        {
                            "internalType": "enum ColdChain.Mode",
                            "name": "mode",
                            "type": "uint8"
                        },
                        {
                            "internalType": "uint256[]",
                            "name": "CertificateId",
                            "type": "uint256[]"
                        }
                    ],
                    "internalType": "struct ColdChain.Entity",
                    "name": "provider",
                    "type": "tuple"
                },
                {
                    "internalType": "bytes",
                    "name": "signature",
                    "type": "bytes"
                },
                {
                    "internalType": "enum ColdChain.Status",
                    "name": "status",
                    "type": "uint8"
                }
            ],
            "stateMutability": "view",
            "type": "function"
        },
        {
            "inputs": [],
            "name": "MAX_CERTIFICATIONS",
            "outputs": [
                {
                    "internalType": "uint256",
                    "name": "",
                    "type": "uint256"
                }
            ],
            "stateMutability": "view",
            "type": "function"
        },
        {
            "inputs": [
                {
                    "internalType": "uint256",
                    "name": "",
                    "type": "uint256"
                }
            ],
            "name": "VaccineBatchIds",
            "outputs": [
                {
                    "internalType": "uint256",
                    "name": "",
                    "type": "uint256"
                }
            ],
            "stateMutability": "view",
            "type": "function"
        },
        {
            "inputs": [
                {
                    "internalType": "uint256",
                    "name": "",
                    "type": "uint256"
                }
            ],
            "name": "VaccineBatches",
            "outputs": [
                {
                    "internalType": "uint256",
                    "name": "id",
                    "type": "uint256"
                },
                {
                    "internalType": "string",
                    "name": "brand",
                    "type": "string"
                },
                {
                    "internalType": "address",
                    "name": "manufacturer",
                    "type": "address"
                }
            ],
            "stateMutability": "view",
            "type": "function"
        },
        {
            "inputs": [
                {
                    "internalType": "address",
                    "name": "_id",
                    "type": "address"
                },
                {
                    "internalType": "string",
                    "name": "_mode",
                    "type": "string"
                }
            ],
            "name": "addEntity",
            "outputs": [],
            "stateMutability": "nonpayable",
            "type": "function"
        },
        {
            "inputs": [
                {
                    "internalType": "string",
                    "name": "brand",
                    "type": "string"
                },
                {
                    "internalType": "address",
                    "name": "manufacturer",
                    "type": "address"
                }
            ],
            "name": "addVaccineBatch",
            "outputs": [
                {
                    "internalType": "uint256",
                    "name": "",
                    "type": "uint256"
                }
            ],
            "stateMutability": "nonpayable",
            "type": "function"
        },
        {
            "inputs": [
                {
                    "internalType": "address",
                    "name": "",
                    "type": "address"
                }
            ],
            "name": "entities",
            "outputs": [
                {
                    "internalType": "address",
                    "name": "id",
                    "type": "address"
                },
                {
                    "internalType": "enum ColdChain.Mode",
                    "name": "mode",
                    "type": "uint8"
                }
            ],
            "stateMutability": "view",
            "type": "function"
        },
        {
            "inputs": [
                {
                    "internalType": "bytes32",
                    "name": "message",
                    "type": "bytes32"
                },
                {
                    "internalType": "uint256",
                    "name": "id",
                    "type": "uint256"
                },
                {
                    "internalType": "address",
                    "name": "issuer",
                    "type": "address"
                }
            ],
            "name": "isMatchingSignature",
            "outputs": [
                {
                    "internalType": "bool",
                    "name": "",
                    "type": "bool"
                }
            ],
            "stateMutability": "view",
            "type": "function"
        },
        {
            "inputs": [
                {
                    "internalType": "address",
                    "name": "_issuer",
                    "type": "address"
                },
                {
                    "internalType": "address",
                    "name": "_prover",
                    "type": "address"
                },
                {
                    "internalType": "string",
                    "name": "_status",
                    "type": "string"
                },
                {
                    "internalType": "uint256",
                    "name": "vaccineBatchId",
                    "type": "uint256"
                },
                {
                    "internalType": "bytes",
                    "name": "signature",
                    "type": "bytes"
                }
            ],
            "name": "issueCertificate",
            "outputs": [
                {
                    "internalType": "uint256",
                    "name": "",
                    "type": "uint256"
                }
            ],
            "stateMutability": "nonpayable",
            "type": "function"
        }
    ],
    "bytecode": "608060405234801561001057600080fd5b5061188b806100206000396000f3fe608060405234801561001057600080fd5b506004361061009e5760003560e01c80639622c836116100665780639622c8361461015d578063b5bad46d14610181578063c867490514610196578063c8d8184b146101a9578063fc79b0a9146101bc57600080fd5b80631a109658146100a35780631ce4b520146100ce5780631d8ee48a146100ef57806345194c07146101325780634851a01d14610155575b600080fd5b6100b66100b1366004611294565b6101cf565b6040516100c5939291906112fd565b60405180910390f35b6100e16100dc366004611294565b610283565b6040519081526020016100c5565b6101246100fd36600461134a565b6004602052600090815260409020546001600160a01b03811690600160a01b900460ff1682565b6040516100c592919061138f565b6101456101403660046113ac565b6102a4565b60405190151581526020016100c5565b6100e1600281565b61017061016b366004611294565b610550565b6040516100c5959493929190611456565b61019461018f366004611564565b61075e565b005b6100e16101a4366004611294565b61088c565b6100e16101b73660046115b2565b61089c565b6100e16101ca366004611655565b610cca565b600260205260009081526040902080546001820180549192916101f1906116a3565b80601f016020809104026020016040519081016040528092919081815260200182805461021d906116a3565b801561026a5780601f1061023f5761010080835404028352916020019161026a565b820191906000526020600020905b81548152906001019060200180831161024d57829003601f168201915b505050600290930154919250506001600160a01b031683565b6000818154811061029357600080fd5b600091825260209091200154905081565b6000828152600360209081526040808320815160a081018352815481528251606081019093526001820180546001600160a01b0381168552869592948584019390929190830190600160a01b900460ff16600281111561030657610306611365565b600281111561031757610317611365565b81526020016001820180548060200260200160405190810160405280929190818152602001828054801561036a57602002820191906000526020600020905b815481526020019060010190808311610356575b50505091909252505050815260408051606081019091526003830180546001600160a01b0381168352602093840193830190600160a01b900460ff1660028111156103b7576103b7611365565b60028111156103c8576103c8611365565b81526020016001820180548060200260200160405190810160405280929190818152602001828054801561041b57602002820191906000526020600020905b815481526020019060010190808311610407575b5050505050815250508152602001600582018054610438906116a3565b80601f0160208091040260200160405190810160405280929190818152602001828054610464906116a3565b80156104b15780601f10610486576101008083540402835291602001916104b1565b820191906000526020600020905b81548152906001019060200180831161049457829003601f168201915b5050509183525050600682015460209091019060ff1660048111156104d8576104d8611365565b60048111156104e9576104e9611365565b815250509050826001600160a01b03168160200151600001516001600160a01b03161461051557600080fd5b6000610525868360600151610e0d565b90508160200151600001516001600160a01b0316816001600160a01b031614925050505b9392505050565b60036020908152600091825260409182902080548351606081019094526001820180546001600160a01b038116865291949293909190830190600160a01b900460ff1660028111156105a4576105a4611365565b60028111156105b5576105b5611365565b81526020016001820180548060200260200160405190810160405280929190818152602001828054801561060857602002820191906000526020600020905b8154815260200190600101908083116105f4575b50505091909252505060408051606081019091526003840180546001600160a01b0381168352939493919250906020830190600160a01b900460ff16600281111561065557610655611365565b600281111561066657610666611365565b8152602001600182018054806020026020016040519081016040528092919081815260200182805480156106b957602002820191906000526020600020905b8154815260200190600101908083116106a5575b505050505081525050908060050180546106d2906116a3565b80601f01602080910402602001604051908101604052809291908181526020018280546106fe906116a3565b801561074b5780601f106107205761010080835404028352916020019161074b565b820191906000526020600020905b81548152906001019060200180831161072e57829003601f168201915b5050506006909301549192505060ff1685565b600061076982610e8c565b604080516002808252606082018352929350600092909160208301908036833701905050905060006040518060600160405280866001600160a01b031681526020018460028111156107bd576107bd611365565b815260209081018490526001600160a01b03808816600090815260048352604090208351815492166001600160a01b03198316811782559284015193945084939092909183916001600160a81b031990911617600160a01b83600281111561082757610827611365565b021790555060408201518051610847916001840191602090910190611234565b505081516040517ff5a37da00f0e4029ee2682b1919ee55d7e6f9d7492237aad9bd1aea7d53d4874925061087d919087906116dd565b60405180910390a15050505050565b6001818154811061029357600080fd5b6001600160a01b03858116600090815260046020908152604080832081516060810190925280549485168252929384939192830190600160a01b900460ff1660028111156108ec576108ec611365565b60028111156108fd576108fd611365565b81526020016001820180548060200260200160405190810160405280929190818152602001828054801561095057602002820191906000526020600020905b81548152602001906001019080831161093c575b50505050508152505090506000600281111561096e5761096e611365565b8160200151600281111561098457610984611365565b1461098e57600080fd5b6001600160a01b038681166000908152600460209081526040808320815160608101909252805494851682529293909291830190600160a01b900460ff1660028111156109dd576109dd611365565b60028111156109ee576109ee611365565b815260200160018201805480602002602001604051908101604052809291908181526020018280548015610a4157602002820191906000526020600020905b815481526020019060010190808311610a2d575b505050505081525050905060016002811115610a5f57610a5f611365565b81602001516002811115610a7557610a75611365565b14610a7f57600080fd5b6000610a8a87610fe2565b905060008080549050905060006040518060a00160405280838152602001868152602001858152602001888152602001846004811115610acc57610acc611365565b905260008054600180820183558280527f290decd9548b62a8d60345a988386fc84ba6bc95484008f6362f93160ef3e5638201919091558154929350839260039291610b1791611709565b8152602080820192909252604001600020825181558282015180516001830180546001600160a01b031981166001600160a01b03909316928317825594830151939492939092909183916001600160a81b03191617600160a01b836002811115610b8357610b83611365565b021790555060408201518051610ba3916001840191602090910190611234565b505050604082015180516003830180546001600160a01b031981166001600160a01b0390931692831782556020840151919283916001600160a81b03191617600160a01b836002811115610bf957610bf9611365565b021790555060408201518051610c19916001840191602090910190611234565b50505060608201516005820190610c309082611779565b50608082015160068201805460ff19166001836004811115610c5457610c54611365565b0217905550506000546001600160a01b03808d1692508d16907fc9e3e855764ebb21ed83dcdf8ed5e1398c752d6446308e092c28a84a77a199bd90610c9b90600190611709565b60405190815260200160405180910390a3600054610cbb90600190611709565b9b9a5050505050505050505050565b6040805160028082526060820183526000928392919060208301908036833701905050600180546040805160808101825282815260208082018a81526001600160a01b038a1683850152606083018790526000858152600290925292902081518155915194955091939192839290820190610d459082611779565b5060408201516002820180546001600160a01b0319166001600160a01b0390921691909117905560608201518051610d87916003840191602090910190611234565b50506001805480820182556000919091527fb10e2d527612073b26eecdfd717e6a320cf44b4afac2b0732d9fcbe2b7fa0cf60183905550604081810151825191519182526001600160a01b0316907fe85391abb5e51659c581dd95107048251657ee66755655cc08c9c0ec3a0a91399060200160405180910390a2509150505b92915050565b600080600080610e1c85611205565b6040805160008152602081018083528b905260ff8516918101919091526060810183905260808101829052929550909350915060019060a0016020604051602081039080840390855afa158015610e77573d6000803e3d6000fd5b5050604051601f190151979650505050505050565b60008082604051602001610ea09190611839565b6040516020818303038152906040528051906020012090506000604051602001610ed6906524a9a9aaa2a960d11b815260060190565b6040516020818303038152906040528051906020012090506000604051602001610f0c9065282927ab22a960d11b815260060190565b6040516020818303038152906040528051906020012090506000604051602001610f4490672b22a924a324a2a960c11b815260080190565b604051602081830303815290604052805190602001209050828403610f6f5750600095945050505050565b818403610f825750600195945050505050565b808403610f955750600295945050505050565b60405162461bcd60e51b815260206004820152601c60248201527f726563696576656420696e76616c696420656e74697479206d6f64650000000060448201526064015b60405180910390fd5b60008082604051602001610ff69190611839565b6040516020818303038152906040528051906020012090506000604051602001611032906b13505395519050d51554915160a21b8152600c0190565b604051602081830303815290604052805190602001209050600060405160200161107f907f44454c49564552494e475f494e5445524e4154494f4e414c0000000000000000815260180190565b60405160208183030381529060405280519060200120905060006040516020016110b5906514d513d4915160d21b815260060190565b60405160208183030381529060405280519060200120905060006040516020016110f5906f11115312559154925391d7d313d0d05360821b815260100190565b604051602081830303815290604052805190602001209050600060405160200161112e906811115312559154915160ba1b815260090190565b60405160208183030381529060405280519060200120905084860361115b57506000979650505050505050565b83860361117057506001979650505050505050565b82860361118557506002979650505050505050565b81860361119a57506003979650505050505050565b8086036111af57506004979650505050505050565b60405162461bcd60e51b815260206004820152602560248201527f726563696576656420696e76616c69642063657274696669636174696f6e2073604482015264746174757360d81b6064820152608401610fd9565b6000806000835160411461121857600080fd5b5050506020810151604082015160609092015160001a92909190565b82805482825590600052602060002090810192821561126f579160200282015b8281111561126f578251825591602001919060010190611254565b5061127b92915061127f565b5090565b5b8082111561127b5760008155600101611280565b6000602082840312156112a657600080fd5b5035919050565b60005b838110156112c85781810151838201526020016112b0565b50506000910152565b600081518084526112e98160208601602086016112ad565b601f01601f19169290920160200192915050565b83815260606020820152600061131660608301856112d1565b905060018060a01b0383166040830152949350505050565b80356001600160a01b038116811461134557600080fd5b919050565b60006020828403121561135c57600080fd5b6105498261132e565b634e487b7160e01b600052602160045260246000fd5b6003811061138b5761138b611365565b9052565b6001600160a01b038316815260408101610549602083018461137b565b6000806000606084860312156113c157600080fd5b83359250602084013591506113d86040850161132e565b90509250925092565b80516001600160a01b0316825260208082015160009160608501916114088287018261137b565b506040840151606060408701528281518085526080880191508383019450600092505b8083101561144b578451825293830193600192909201919083019061142b565b509695505050505050565b85815260a06020820152600061146f60a08301876113e1565b828103604084015261148181876113e1565b9050828103606084015261149581866112d1565b915050600583106114a8576114a8611365565b8260808301529695505050505050565b634e487b7160e01b600052604160045260246000fd5b600067ffffffffffffffff808411156114e9576114e96114b8565b604051601f8501601f19908116603f01168101908282118183101715611511576115116114b8565b8160405280935085815286868601111561152a57600080fd5b858560208301376000602087830101525050509392505050565b600082601f83011261155557600080fd5b610549838335602085016114ce565b6000806040838503121561157757600080fd5b6115808361132e565b9150602083013567ffffffffffffffff81111561159c57600080fd5b6115a885828601611544565b9150509250929050565b600080600080600060a086880312156115ca57600080fd5b6115d38661132e565b94506115e16020870161132e565b9350604086013567ffffffffffffffff808211156115fe57600080fd5b61160a89838a01611544565b945060608801359350608088013591508082111561162757600080fd5b508601601f8101881361163957600080fd5b611648888235602084016114ce565b9150509295509295909350565b6000806040838503121561166857600080fd5b823567ffffffffffffffff81111561167f57600080fd5b61168b85828601611544565b92505061169a6020840161132e565b90509250929050565b600181811c908216806116b757607f821691505b6020821081036116d757634e487b7160e01b600052602260045260246000fd5b50919050565b6001600160a01b0383168152604060208201819052600090611701908301846112d1565b949350505050565b81810381811115610e0757634e487b7160e01b600052601160045260246000fd5b601f82111561177457600081815260208120601f850160051c810160208610156117515750805b601f850160051c820191505b818110156117705782815560010161175d565b5050505b505050565b815167ffffffffffffffff811115611793576117936114b8565b6117a7816117a184546116a3565b8461172a565b602080601f8311600181146117dc57600084156117c45750858301515b600019600386901b1c1916600185901b178555611770565b600085815260208120601f198616915b8281101561180b578886015182559484019460019091019084016117ec565b50858210156118295787850151600019600388901b60f8161c191681555b5050505050600190811b01905550565b6000825161184b8184602087016112ad565b919091019291505056fea26469706673582212205fbef0dea80e28f77b297d75bc210350f0c75f1a7505bb5da3a51ffbfc89ec7764736f6c63430008110033",
    "sourcePath": "e:/projects/web3.0-webapp/ffg.sol",
    "compiler": {
        "name": "solc",
        "version": "0.8.17+commit.8df45f5f"
    },
    "functionHashes": {
        "CertificateIds(uint256)": "1ce4b520",
        "Certificates(uint256)": "9622c836",
        "MAX_CERTIFICATIONS()": "4851a01d",
        "VaccineBatchIds(uint256)": "c8674905",
        "VaccineBatches(uint256)": "1a109658",
        "addEntity(address,string)": "b5bad46d",
        "addVaccineBatch(string,address)": "fc79b0a9",
        "entities(address)": "1d8ee48a",
        "isMatchingSignature(bytes32,uint256,address)": "45194c07",
        "issueCertificate(address,address,string,uint256,bytes)": "c8d8184b"
    },
    "gasEstimates": {
        "creation": {
            "codeDepositCost": "1256600",
            "executionCost": "1308",
            "totalCost": "1257908"
        },
        "external": {
            "CertificateIds(uint256)": "4598",
            "Certificates(uint256)": "infinite",
            "MAX_CERTIFICATIONS()": "284",
            "VaccineBatchIds(uint256)": "4619",
            "VaccineBatches(uint256)": "infinite",
            "addEntity(address,string)": "infinite",
            "addVaccineBatch(string,address)": "infinite",
            "entities(address)": "infinite",
            "isMatchingSignature(bytes32,uint256,address)": "infinite",
            "issueCertificate(address,address,string,uint256,bytes)": "infinite"
        },
        "internal": {
            "unmarshalMode(string memory)": "infinite",
            "unmarshalStatus(string memory)": "infinite"
        }
    }
}